:020000040800F2
:10000000000003205D020008AD020008AD020008F8
:10001000AD020008AD020008AD02000800000000BB
:10002000000000000000000000000000AD02000819
:10003000AD02000800000000AD020008AD0200089B
:10004000AD020008AD020008AD020008AD020008D4
:10005000AD020008AD020008AD020008AD020008C4
:10006000AD020008AD020008AD020008AD020008B4
:10007000AD020008AD020008AD020008AD020008A4
:10008000AD020008AD020008AD020008AD02000894
:10009000AD020008AD020008AD020008AD02000884
:1000A000AD020008AD020008AD020008AD02000874
:1000B000AD020008AD020008AD020008AD02000864
:1000C000AD020008AD020008AD020008AD02000854
:1000D000AD020008AD020008AD020008AD02000844
:1000E000AD020008AD020008AD020008AD02000834
:1000F000AD020008AD020008AD020008AD02000824
:10010000AD020008AD020008AD020008AD02000813
:10011000AD020008AD020008AD020008AD02000803
:10012000AD020008AD020008AD020008AD020008F3
:10013000AD020008AD020008AD020008AD020008E3
:10014000AD020008AD020008AD020008AD020008D3
:10015000AD020008AD020008AD020008AD020008C3
:10016000AD020008AD020008AD020008AD020008B3
:10017000AD020008AD020008AD020008000000005A
:10018000AD020008AD020008AD020008AD02000893
:10019000AD020008AD020008AD020008AD02000883
:0C01A000AD020008AD020008AD0200082E
:1001AC0010B5054C237833B9044B13B10448AFF3A5
:1001BC0000800123237010BD00000020000000000F
:1001CC00F802000808B5034B1BB103490348AFF311
:1001DC00008008BD0000000004000020F8020008A8
:1001EC00034AD2F8883043F47003C2F88830704761
:1001FC0000ED00E0144AD2F8303843F00603C2F8A0
:10020C003038124BD3F8002442F48042C3F8002457
:10021C00D3F8082442F48042C3F8082406E00B4AC1
:10022C00D2F8183443F08003C2F81834074BD3F8D3
:10023C00103813F4005FF2D1044AD2F8183443F4A6
:10024C000003C2F81834F1E700300240000002400D
:10025C00DFF834D00D480E490E4A002302E0D45882
:10026C00C4500433C4188C42F9D30B4A0B4C0023F2
:10027C0001E013600432A242FBD3FFF7B1FF00F0A0
:10028C0011F8FFF7B7FF70470000032000000020B3
:10029C000000002018030008000000201C000020B3
:1002AC00FEE7000070B50D4D0D4C641BA41000262C
:1002BC00A64209D10B4D0C4C00F018F8641BA4108D
:1002CC000026A64205D170BD55F8043B984701366F
:1002DC00EEE755F8043B98470136F2E710030008A7
:1002EC00100300081003000814030008F8B500BF41
:1002FC00F8BC08BC9E467047F8B500BFF8BC08BCFB
:04030C009E46704752
:04031000D10100080F
:04031400AD0100082F
:040000050800025D90
:00000001FF
