:020000040800F2
:1000000000000320E1050008310600083106000861
:100010003106000831060008310600080000000023
:100020000000000000000000000000003106000891
:100030003106000800000000310600083106000803
:1000400031060008310600083106000831060008B4
:1000500031060008310600083106000831060008A4
:100060003106000831060008310600083106000894
:100070003106000831060008310600083106000884
:100080003106000831060008310600083106000874
:100090003106000831060008310600083106000864
:1000A0003106000831060008310600083106000854
:1000B0003106000831060008310600083106000844
:1000C0003106000831060008310600083106000834
:1000D0003106000831060008310600083106000824
:1000E0003106000831060008310600083106000814
:1000F0003106000831060008310600083106000804
:1001000031060008310600083106000831060008F3
:1001100031060008310600083106000831060008E3
:1001200031060008310600083106000831060008D3
:1001300031060008310600083106000831060008C3
:1001400031060008310600083106000831060008B3
:1001500031060008310600083106000831060008A3
:100160003106000831060008310600083106000893
:1001700031060008310600083106000800000000C2
:100180003106000831060008310600083106000873
:100190003106000831060008310600083106000863
:0C01A00031060008310600083106000896
:1001AC0010B5054C237833B9044B13B10448AFF3A5
:1001BC0000800123237010BD00000020000000000F
:1001CC007C06000808B5034B1BB103490348AFF389
:1001DC00008008BD00000000040000207C06000820
:1001EC00034AD2F8883043F47003C2F88830704761
:1001FC0000ED00E0002201E000BF01324FF47A7301
:10020C0000FB03F39342F7D870470000084B1860CB
:10021C0058B90122074B1A7031B1074B01221A70E1
:10022C00064A13680133136070470022F2E700BFDF
:10023C002C0000203000002028000020240000208A
:10024C0058B90122064B1A7031B1064B01221A70B3
:10025C00054A13680133136070470022F2E700BFB0
:10026C001F0000201E000020240000201D4B1B78C6
:10027C00DBB2012B33D010B51B4BD3F8104C04F070
:10028C00100400212046FFF7C1FF0CB1002010BD67
:10029C001420FFF7AFFF144BD3F8104C04F01004EC
:1002AC0000212046FFF7B2FF4CB10020EFE70E4BC8
:1002BC00D3F8100C002100F01000FFF7A7FF0A4B39
:1002CC00D3F8103C13F0100FF1D0074BD3F8100CEF
:1002DC00012100F01000FFF799FF0120D7E7002063
:1002EC00704700BF1D0000200000024010B5194BE4
:1002FC00D3F8104804F0080400212046FFF7A0FFB3
:10030C000CB1002010BD1420FFF774FF114BD3F873
:10031C00104804F0080400212046FFF791FF4CB16F
:10032C000020EFE70B4BD3F81008002100F0080079
:10033C00FFF786FF074BD3F8103813F0080FF1D0F6
:10034C00044BD3F81008012100F00800FFF778FFE8
:10035C000120D7E700100240064B4FF080429A6113
:10036C004FF400029A61A3F580634FF48032C3F816
:10037C00182470470004024010B50446FFF7ECFF48
:10038C00022C08D0032C0DD0012C03D10B4B4FF4B5
:10039C0080429A6110BD094B4FF480429A618022D1
:1003AC009A61F7E7054B4FF480429A6180229A617B
:1003BC00A3F580630122C3F81824EBE70004024084
:1003CC0010B50B4B1B783BB9094B01221A7000F08E
:1003DC00D9F8FFF7C1FF10BD0024054B1C7000F0CD
:1003EC003FF8044B1C701878FFF7C6FFF3E700BF0B
:1003FC001D0000202000002008B500F049F8FFF790
:10040C00ABFF0023114A1370114A1370114A137079
:10041C000EE0FFF7D5FF14E00C4A1378013303F01C
:10042C00030313701078FFF7A7FF0A20FFF7E2FE13
:10043C000023094A1370094A1370FFF757FF00286D
:10044C00E7D1FFF713FF0028E6D1EEE720000020EC
:10045C001D0000201C000020280000201E00002091
:10046C00094AD2F8003C23F44073C2F8003CD2F89D
:10047C000C3C23F4407343F48073C2F80C3C034BE4
:10048C0000221A70704700BF000002401C000020C0
:10049C0008B5394AD2F8303843F04A03C2F830383C
:1004AC00FFF7DEFF354AD2F8003823F0C003C2F85C
:1004BC000038D2F80C3823F0C00343F04003C2F8E4
:1004CC000C382F4BD3F8002422F0405242F08052CB
:1004DC00C3F80024D3F8042422F48042C3F8042483
:1004EC00D3F8082422F0405242F00052C3F80824FA
:1004FC00D3F80C2422F04052C3F80C244FF0804265
:10050C00C3F8182402F50132116821F4404141F47A
:10051C0080411160516821F080015160916821F493
:10052C00404141F400419160D16821F44041D160D7
:10053C004FF400019161D3F8002422F0030242F041
:10054C000102C3F80024D3F8042422F00102C3F8FA
:10055C000424D3F8082422F0030242F00202C3F868
:10056C000824D3F80C2422F00302C3F80C244FF413
:10057C008032C3F8182408BD00300240001002403D
:10058C0000000240114BD3F8002C22F4407242F4CC
:10059C008072C3F8002CD3F8042C22F01002C3F89C
:1005AC00042CD3F8082C22F4407242F40072C3F8E5
:1005BC00082CD3F80C2C22F44072C3F80C2C10220B
:1005CC00C3F8182C024B01221A707047000002402D
:1005DC001C000020DFF834D00D480E490E4A0023D1
:1005EC0002E0D458C4500433C4188C42F9D30B4ADB
:1005FC000B4C002301E013600432A242FBD3FFF743
:10060C00EFFD00F011F8FFF7F7FE70470000032034
:10061C0000000020000000209C06000800000020C4
:10062C0034000020FEE7000070B50D4D0D4C641B2E
:10063C00A4100026A64209D10B4D0C4C00F018F862
:10064C00641BA4100026A64205D170BD55F8043BCE
:10065C0098470136EEE755F8043B98470136F2E728
:10066C0094060008940600089406000898060008F2
:10067C00F8B500BFF8BC08BC9E467047F8B500BF83
:08068C00F8BC08BC9E46704753
:04069400D101000888
:04069800AD010008A8
:04000005080005E109
:00000001FF
