:020000040800F2
:1000000000000320D1040008210500082105000894
:100010002105000821050008210500080000000056
:1000200000000000000000000000000021050008A2
:100030002105000800000000210500082105000836
:1000400021050008210500082105000821050008F8
:1000500021050008210500082105000821050008E8
:1000600021050008210500082105000821050008D8
:1000700021050008210500082105000821050008C8
:1000800021050008210500082105000821050008B8
:1000900021050008210500082105000821050008A8
:1000A0002105000821050008210500082105000898
:1000B0002105000821050008210500082105000888
:1000C0002105000821050008210500082105000878
:1000D0002105000821050008210500082105000868
:1000E0002105000821050008210500082105000858
:1000F0002105000821050008210500082105000848
:100100002105000821050008210500082105000837
:100110002105000821050008210500082105000827
:100120002105000821050008210500082105000817
:100130002105000821050008210500082105000807
:1001400021050008210500082105000821050008F7
:1001500021050008210500082105000821050008E7
:1001600021050008210500082105000821050008D7
:1001700021050008210500082105000800000000F5
:1001800021050008210500082105000821050008B7
:1001900021050008210500082105000821050008A7
:0C01A000210500082105000821050008C9
:1001AC0010B5054C237833B9044B13B10448AFF3A5
:1001BC0000800123237010BD00000020000000000F
:1001CC006C05000808B5034B1BB103490348AFF39A
:1001DC00008008BD00000000040000206C05000831
:1001EC00034AD2F8883043F47003C2F88830704761
:1001FC0000ED00E0002201E000BF01324FF47A7301
:10020C0000FB03F39342F7D87047000008B50D4B81
:10021C00D3F8103813F4005F01D1002008BD14206E
:10022C00FFF7E8FF074BD3F8103813F4005F01D148
:10023C000020F3E7034BD3F8103813F4005FF9D127
:10024C000120EBE70000024010B5164CD4F8003C3E
:10025C0023F44073C4F8003C0120FFF7CBFFD4F823
:10026C00103C13F0100F0AD000200E4AD2F8003CBC
:10027C0023F4407343F48073C2F8003C10BD142087
:10028C00FFF7B8FFD4F8103C13F0100F07D1054B53
:10029C00D3F8103C13F0100FF9D00120E5E7002043
:1002AC00E3E700BF000002402DE9F04100F082F8C6
:1002BC003D4B4FF480129A61A3F500634FF08042DE
:1002CC009A614FF400029A61A3F580634FF4803277
:1002DC00C3F818244FF001084746464600253BE07A
:1002EC0087F001073FE0B8F1000F49D02E4B1022E8
:1002FC009A614FF49670FFF77DFF002E49D02B4B7F
:10030C004FF480429A614FF49670FFF773FF002F01
:10031C0044D0264B80229A614FF49670FFF76AFF07
:10032C00234C0123C4F818344FF49670FFF762FF86
:10033C001D4B4FF480129A61A3F500634FF080427D
:10034C009A614FF400029A614FF48033C4F8183468
:10035C004FF49670FFF74EFFFFF758FF18B1002DC2
:10036C00BED186F00106FFF76FFF0028BBD085F0E9
:10037C00010355B90C4A4FF480119161A8461D46F2
:10038C00094B4FF480129A61B3E71D464FF00108F8
:10039C00ACE7064B4FF080429A61B4E7034B4FF445
:1003AC0000029A61B8E700BF000C02400004024052
:1003BC0000000240404AD2F8303843F00E03C2F835
:1003CC0030383E4BD3F8002C22F4407242F4807249
:1003DC00C3F8002CD3F8042C22F01002C3F8042C20
:1003EC00D3F8082C22F4407242F40072C3F8082CA3
:1003FC00D3F80C2C22F4407242F48072C3F80C2C0B
:10040C00D3F8002422F0405242F08052C3F800246A
:10041C00D3F8042422F48042C3F80424D3F808242B
:10042C0022F0405242F00052C3F80824D3F80C24B6
:10043C0022F04052C3F80C24214A116821F44041A7
:10044C0041F480411160516821F080015160916844
:10045C0021F4404141F400419160D16821F44041C4
:10046C00D160D3F8002422F0030242F00102C3F859
:10047C000024D3F8042422F00102C3F80424D3F896
:10048C00082422F0030242F00202C3F80824D3F835
:10049C000C2422F00302C3F80C24D3F8002822F019
:1004AC004062C3F80028D3F80C2822F0406242F0D6
:1004BC000062C3F80C287047003002400000024074
:1004CC0000040240DFF834D00D480E490E4A0023D8
:1004DC0002E0D458C4500433C4188C42F9D30B4AEC
:1004EC000B4C002301E013600432A242FBD3FFF754
:1004FC0077FE00F011F8FFF7D7FE704700000320DD
:10050C0000000020000000208C05000800000020E6
:10051C001C000020FEE7000070B50D4D0D4C641B57
:10052C00A4100026A64209D10B4D0C4C00F018F873
:10053C00641BA4100026A64205D170BD55F8043BDF
:10054C0098470136EEE755F8043B98470136F2E739
:10055C008405000884050008840500088805000847
:10056C00F8B500BFF8BC08BC9E467047F8B500BF94
:08057C00F8BC08BC9E46704764
:04058400D101000899
:04058800AD010008B9
:04000005080004D11A
:00000001FF
