:020000040800F2
:10000000000003204102000891020008910200084C
:10001000910200089102000891020008000000000F
:100020000000000000000000000000009102000835
:1000300091020008000000009102000891020008EF
:100040009102000891020008910200089102000844
:100050009102000891020008910200089102000834
:100060009102000891020008910200089102000824
:100070009102000891020008910200089102000814
:100080009102000891020008910200089102000804
:1000900091020008910200089102000891020008F4
:1000A00091020008910200089102000891020008E4
:1000B00091020008910200089102000891020008D4
:1000C00091020008910200089102000891020008C4
:1000D00091020008910200089102000891020008B4
:1000E00091020008910200089102000891020008A4
:1000F0009102000891020008910200089102000894
:100100009102000891020008910200089102000883
:100110009102000891020008910200089102000873
:100120009102000891020008910200089102000863
:100130009102000891020008910200089102000853
:100140009102000891020008910200089102000843
:100150009102000891020008910200089102000833
:100160009102000891020008910200089102000823
:1001700091020008910200089102000800000000AE
:100180009102000891020008910200089102000803
:1001900091020008910200089102000891020008F3
:0C01A00091020008910200089102000882
:1001AC0010B5054C237833B9044B13B10448AFF3A5
:1001BC0000800123237010BD00000020000000000F
:1001CC00DC02000808B5034B1BB103490348AFF32D
:1001DC00008008BD0000000004000020DC020008C4
:1001EC00034AD2F8883043F47003C2F88830704761
:1001FC0000ED00E00D4AD2F8303843F00203C2F8AB
:10020C0030380B4BD3F8002442F48042C3F800245E
:10021C00D3F8082442F48042C3F80824044AD2F8E4
:10022C00183443F08003C2F81834F7E7003002406A
:10023C0000000240DFF834D00D480E490E4A00236E
:10024C0002E0D458C4500433C4188C42F9D30B4A7E
:10025C000B4C002301E013600432A242FBD3FFF7E6
:10026C00BFFF00F011F8FFF7C5FF70470000032037
:10027C000000002000000020FC020008000000200C
:10028C001C000020FEE7000070B50D4D0D4C641BEA
:10029C00A4100026A64209D10B4D0C4C00F018F806
:1002AC00641BA4100026A64205D170BD55F8043B72
:1002BC0098470136EEE755F8043B98470136F2E7CC
:1002CC00F4020008F4020008F4020008F802000826
:1002DC00F8B500BFF8BC08BC9E467047F8B500BF27
:0802EC00F8BC08BC9E467047F7
:0402F400D10100082C
:0402F800AD0100084C
:0400000508000241AC
:00000001FF
